{
  "contractName": "tictactoa",
  "abi": [
    {
      "constant": true,
      "inputs": [
        {
          "name": "_player1",
          "type": "address"
        },
        {
          "name": "_betAmound",
          "type": "uint256"
        },
        {
          "name": "_round",
          "type": "uint256"
        }
      ],
      "name": "name",
      "outputs": [
        {
          "name": "",
          "type": "string"
        }
      ],
      "payable": false,
      "stateMutability": "view",
      "type": "function"
    },
    {
      "constant": false,
      "inputs": [
        {
          "name": "spender",
          "type": "address"
        },
        {
          "name": "tokens",
          "type": "uint256"
        },
        {
          "name": "_round",
          "type": "uint256"
        }
      ],
      "name": "approve",
      "outputs": [
        {
          "name": "success",
          "type": "bool"
        }
      ],
      "payable": false,
      "stateMutability": "nonpayable",
      "type": "function"
    },
    {
      "constant": true,
      "inputs": [
        {
          "name": "_player2",
          "type": "address"
        }
      ],
      "name": "totalSupply",
      "outputs": [
        {
          "name": "",
          "type": "uint256"
        },
        {
          "name": "_player2",
          "type": "address"
        },
        {
          "name": "_betAmound",
          "type": "uint256"
        },
        {
          "name": "_round",
          "type": "uint256"
        }
      ],
      "payable": false,
      "stateMutability": "view",
      "type": "function"
    },
    {
      "constant": false,
      "inputs": [
        {
          "name": "from",
          "type": "address"
        },
        {
          "name": "to",
          "type": "address"
        },
        {
          "name": "tokens",
          "type": "uint256"
        }
      ],
      "name": "transferFrom",
      "outputs": [
        {
          "name": "success",
          "type": "bool"
        },
        {
          "name": "_player2",
          "type": "address"
        },
        {
          "name": "_betAmound",
          "type": "uint256"
        },
        {
          "name": "_round",
          "type": "uint256"
        }
      ],
      "payable": false,
      "stateMutability": "nonpayable",
      "type": "function"
    },
    {
      "constant": true,
      "inputs": [],
      "name": "decimals",
      "outputs": [
        {
          "name": "",
          "type": "uint8"
        }
      ],
      "payable": false,
      "stateMutability": "view",
      "type": "function"
    },
    {
      "constant": true,
      "inputs": [
        {
          "name": "tokenOwner",
          "type": "address"
        }
      ],
      "name": "balanceOf",
      "outputs": [
        {
          "name": "balance",
          "type": "uint256"
        }
      ],
      "payable": false,
      "stateMutability": "view",
      "type": "function"
    },
    {
      "constant": true,
      "inputs": [],
      "name": "owner",
      "outputs": [
        {
          "name": "",
          "type": "address"
        }
      ],
      "payable": false,
      "stateMutability": "view",
      "type": "function"
    },
    {
      "constant": true,
      "inputs": [],
      "name": "symbol",
      "outputs": [
        {
          "name": "",
          "type": "string"
        }
      ],
      "payable": false,
      "stateMutability": "view",
      "type": "function"
    },
    {
      "constant": false,
      "inputs": [
        {
          "name": "to",
          "type": "address"
        },
        {
          "name": "tokens",
          "type": "uint256"
        }
      ],
      "name": "transfer",
      "outputs": [
        {
          "name": "success",
          "type": "bool"
        }
      ],
      "payable": false,
      "stateMutability": "nonpayable",
      "type": "function"
    },
    {
      "constant": true,
      "inputs": [
        {
          "name": "tokenOwner",
          "type": "address"
        },
        {
          "name": "spender",
          "type": "address"
        }
      ],
      "name": "allowance",
      "outputs": [
        {
          "name": "remaining",
          "type": "uint256"
        }
      ],
      "payable": false,
      "stateMutability": "view",
      "type": "function"
    },
    {
      "inputs": [],
      "payable": false,
      "stateMutability": "nonpayable",
      "type": "constructor"
    },
    {
      "anonymous": false,
      "inputs": [
        {
          "indexed": true,
          "name": "from",
          "type": "address"
        },
        {
          "indexed": true,
          "name": "to",
          "type": "address"
        },
        {
          "indexed": false,
          "name": "tokens",
          "type": "uint256"
        }
      ],
      "name": "Transfer",
      "type": "event"
    },
    {
      "anonymous": false,
      "inputs": [
        {
          "indexed": true,
          "name": "tokenOwner",
          "type": "address"
        },
        {
          "indexed": true,
          "name": "spender",
          "type": "address"
        },
        {
          "indexed": false,
          "name": "tokens",
          "type": "uint256"
        }
      ],
      "name": "Approval",
      "type": "event"
    },
    {
      "constant": false,
      "inputs": [
        {
          "name": "channelid",
          "type": "bytes32"
        },
        {
          "name": "p1",
          "type": "address"
        },
        {
          "name": "_round",
          "type": "uint256"
        },
        {
          "name": "amount",
          "type": "uint256"
        }
      ],
      "name": "createChannel",
      "outputs": [],
      "payable": false,
      "stateMutability": "nonpayable",
      "type": "function"
    },
    {
      "constant": false,
      "inputs": [
        {
          "name": "channelid",
          "type": "bytes32"
        },
        {
          "name": "p2",
          "type": "address"
        }
      ],
      "name": "joinChannel",
      "outputs": [],
      "payable": false,
      "stateMutability": "nonpayable",
      "type": "function"
    },
    {
      "constant": false,
      "inputs": [
        {
          "name": "_channelid",
          "type": "bytes32"
        },
        {
          "name": "v",
          "type": "uint8"
        },
        {
          "name": "r",
          "type": "bytes32"
        },
        {
          "name": "s",
          "type": "bytes32"
        },
        {
          "name": "value",
          "type": "uint256"
        }
      ],
      "name": "getplayersdetails",
      "outputs": [
        {
          "name": "_player1",
          "type": "address"
        },
        {
          "name": "_player2",
          "type": "address"
        },
        {
          "name": "_betAmount",
          "type": "uint256"
        },
        {
          "name": "_round",
          "type": "uint256"
        }
      ],
      "payable": false,
      "stateMutability": "nonpayable",
      "type": "function"
    },
    {
      "constant": true,
      "inputs": [
        {
          "name": "_b",
          "type": "string"
        }
      ],
      "name": "stringTobyte32",
      "outputs": [
        {
          "name": "_a",
          "type": "bytes32"
        },
        {
          "name": "_player2",
          "type": "address"
        },
        {
          "name": "_betAmount",
          "type": "uint256"
        },
        {
          "name": "_round",
          "type": "uint256"
        }
      ],
      "payable": false,
      "stateMutability": "pure",
      "type": "function"
    },
    {
      "constant": false,
      "inputs": [
        {
          "name": "channelid",
          "type": "bytes32"
        },
        {
          "name": "sig",
          "type": "bytes"
        },
        {
          "name": "message",
          "type": "string"
        }
      ],
      "name": "closeChannel",
      "outputs": [
        {
          "name": "_a",
          "type": "bytes32"
        }
      ],
      "payable": false,
      "stateMutability": "nonpayable",
      "type": "function"
    },
    {
      "constant": false,
      "inputs": [
        {
          "name": "channelid",
          "type": "bytes32"
        },
        {
          "name": "sig",
          "type": "bytes"
        },
        {
          "name": "message",
          "type": "string"
        }
      ],
      "name": "closeChannel",
      "outputs": [],
      "payable": false,
      "stateMutability": "nonpayable",
      "type": "function"
    }
  ],
  "bytecode": "0x608060405233600760006101000a81548173ffffffffffffffffffffffffffffffffffffffff021916908373ffffffffffffffffffffffffffffffffffffffff1602179055503480156200005257600080fd5b506040805190810160405280600381526020017f51544e000000000000000000000000000000000000000000000000000000000081525060009080519060200190620000a09291906200045f565b506040805190810160405280600d81526020017f7175696c68617368546f6b656e0000000000000000000000000000000000000081525060019080519060200190620000ee9291906200045f565b50600a600260006101000a81548160ff021916908360ff160217905550600260009054906101000a900460ff1660ff16600a0a633b9aca000260038190555033600460006101000a81548173ffffffffffffffffffffffffffffffffffffffff021916908373ffffffffffffffffffffffffffffffffffffffff16021790555060035460056000600460009054906101000a900473ffffffffffffffffffffffffffffffffffffffff1673ffffffffffffffffffffffffffffffffffffffff1673ffffffffffffffffffffffffffffffffffffffff16815260200190815260200160002081905550600460009054906101000a900473ffffffffffffffffffffffffffffffffffffffff1673ffffffffffffffffffffffffffffffffffffffff16600073ffffffffffffffffffffffffffffffffffffffff167fddf252ad1be2c89b69c2b068fc378daa952ba7f163c4a11628f55a4df523b3ef6003546040518082815260200191505060405180910390a362000280306402540be40062000287640100000000026401000000009004565b506200050e565b6000600460009054906101000a900473ffffffffffffffffffffffffffffffffffffffff1673ffffffffffffffffffffffffffffffffffffffff163373ffffffffffffffffffffffffffffffffffffffff16141515620002e657600080fd5b81600560003373ffffffffffffffffffffffffffffffffffffffff1673ffffffffffffffffffffffffffffffffffffffff1681526020019081526020016000205403600560003373ffffffffffffffffffffffffffffffffffffffff1673ffffffffffffffffffffffffffffffffffffffff1681526020019081526020016000208190555081600560008573ffffffffffffffffffffffffffffffffffffffff1673ffffffffffffffffffffffffffffffffffffffff1681526020019081526020016000205401600560008573ffffffffffffffffffffffffffffffffffffffff1673ffffffffffffffffffffffffffffffffffffffff168152602001908152602001600020819055508273ffffffffffffffffffffffffffffffffffffffff163373ffffffffffffffffffffffffffffffffffffffff167fddf252ad1be2c89b69c2b068fc378daa952ba7f163c4a11628f55a4df523b3ef846040518082815260200191505060405180910390a36001905092915050565b828054600181600116156101000203166002900490600052602060002090601f016020900481019282601f10620004a257805160ff1916838001178555620004d3565b82800160010185558215620004d3579182015b82811115620004d2578251825591602001919060010190620004b5565b5b509050620004e29190620004e6565b5090565b6200050b91905b8082111562000507576000816000905550600101620004ed565b5090565b90565b6118c5806200051e6000396000f3fe6080604052600436106100db576000357c0100000000000000000000000000000000000000000000000000000000900463ffffffff16806306fdde03146100e0578063095ea7b31461017057806318160ddd146101e357806322b1e1f61461020e57806323b872dd1461027d578063313ce567146103105780633586d460146103415780633fd4650a146103fd57806370a08231146104585780638da5cb5b146104bd57806395d89b4114610514578063989decad146105a4578063a9059cbb14610680578063bb544ef0146106f3578063dd62ed3e1461085c575b600080fd5b3480156100ec57600080fd5b506100f56108e1565b6040518080602001828103825283818151815260200191508051906020019080838360005b8381101561013557808201518184015260208101905061011a565b50505050905090810190601f1680156101625780820380516001836020036101000a031916815260200191505b509250505060405180910390f35b34801561017c57600080fd5b506101c96004803603604081101561019357600080fd5b81019080803573ffffffffffffffffffffffffffffffffffffffff1690602001909291908035906020019092919050505061097f565b604051808215151515815260200191505060405180910390f35b3480156101ef57600080fd5b506101f8610a71565b6040518082815260200191505060405180910390f35b34801561021a57600080fd5b5061027b6004803603608081101561023157600080fd5b8101908080359060200190929190803573ffffffffffffffffffffffffffffffffffffffff1690602001909291908035906020019092919080359060200190929190505050610abc565b005b34801561028957600080fd5b506102f6600480360360608110156102a057600080fd5b81019080803573ffffffffffffffffffffffffffffffffffffffff169060200190929190803573ffffffffffffffffffffffffffffffffffffffff16906020019092919080359060200190929190505050610c45565b604051808215151515815260200191505060405180910390f35b34801561031c57600080fd5b50610325610f9c565b604051808260ff1660ff16815260200191505060405180910390f35b34801561034d57600080fd5b5061037a6004803603602081101561036457600080fd5b8101908080359060200190929190505050610faf565b604051808573ffffffffffffffffffffffffffffffffffffffff1673ffffffffffffffffffffffffffffffffffffffff1681526020018473ffffffffffffffffffffffffffffffffffffffff1673ffffffffffffffffffffffffffffffffffffffff16815260200183815260200182815260200194505050505060405180910390f35b34801561040957600080fd5b506104566004803603604081101561042057600080fd5b8101908080359060200190929190803573ffffffffffffffffffffffffffffffffffffffff169060200190929190505050611060565b005b34801561046457600080fd5b506104a76004803603602081101561047b57600080fd5b81019080803573ffffffffffffffffffffffffffffffffffffffff169060200190929190505050611120565b6040518082815260200191505060405180910390f35b3480156104c957600080fd5b506104d2611169565b604051808273ffffffffffffffffffffffffffffffffffffffff1673ffffffffffffffffffffffffffffffffffffffff16815260200191505060405180910390f35b34801561052057600080fd5b5061052961118f565b6040518080602001828103825283818151815260200191508051906020019080838360005b8381101561056957808201518184015260208101905061054e565b50505050905090810190601f1680156105965780820380516001836020036101000a031916815260200191505b509250505060405180910390f35b3480156105b057600080fd5b5061066a600480360360208110156105c757600080fd5b81019080803590602001906401000000008111156105e457600080fd5b8201836020820111156105f657600080fd5b8035906020019184600183028401116401000000008311171561061857600080fd5b91908080601f016020809104026020016040519081016040528093929190818152602001838380828437600081840152601f19601f82011690508083019250505050505050919291929050505061122d565b6040518082815260200191505060405180910390f35b34801561068c57600080fd5b506106d9600480360360408110156106a357600080fd5b81019080803573ffffffffffffffffffffffffffffffffffffffff1690602001909291908035906020019092919050505061123b565b604051808215151515815260200191505060405180910390f35b3480156106ff57600080fd5b5061085a6004803603606081101561071657600080fd5b81019080803590602001909291908035906020019064010000000081111561073d57600080fd5b82018360208201111561074f57600080fd5b8035906020019184600183028401116401000000008311171561077157600080fd5b91908080601f016020809104026020016040519081016040528093929190818152602001838380828437600081840152601f19601f820116905080830192505050505050509192919290803590602001906401000000008111156107d457600080fd5b8201836020820111156107e657600080fd5b8035906020019184600183028401116401000000008311171561080857600080fd5b91908080601f016020809104026020016040519081016040528093929190818152602001838380828437600081840152601f19601f820116905080830192505050505050509192919290505050611412565b005b34801561086857600080fd5b506108cb6004803603604081101561087f57600080fd5b81019080803573ffffffffffffffffffffffffffffffffffffffff169060200190929190803573ffffffffffffffffffffffffffffffffffffffff1690602001909291905050506117a1565b6040518082815260200191505060405180910390f35b60018054600181600116156101000203166002900480601f0160208091040260200160405190810160405280929190818152602001828054600181600116156101000203166002900480156109775780601f1061094c57610100808354040283529160200191610977565b820191906000526020600020905b81548152906001019060200180831161095a57829003601f168201915b505050505081565b600081600660003373ffffffffffffffffffffffffffffffffffffffff1673ffffffffffffffffffffffffffffffffffffffff16815260200190815260200160002060008573ffffffffffffffffffffffffffffffffffffffff1673ffffffffffffffffffffffffffffffffffffffff168152602001908152602001600020819055508273ffffffffffffffffffffffffffffffffffffffff163373ffffffffffffffffffffffffffffffffffffffff167f8c5be1e5ebec7d5bd14f71427d1e84f3dd0314c0f7b2291e5b200ac8c7c3b925846040518082815260200191505060405180910390a36001905092915050565b6000600560008073ffffffffffffffffffffffffffffffffffffffff1673ffffffffffffffffffffffffffffffffffffffff1681526020019081526020016000205460035403905090565b83600c60008681526020019081526020016000206000015414151515610ae157600080fd5b610ae9611828565b60c0604051908101604052808681526020018573ffffffffffffffffffffffffffffffffffffffff168152602001600073ffffffffffffffffffffffffffffffffffffffff16815260200184815260200183815260200160006001811115610b4d57fe5b815250905080600c60008781526020019081526020016000206000820151816000015560208201518160010160006101000a81548173ffffffffffffffffffffffffffffffffffffffff021916908373ffffffffffffffffffffffffffffffffffffffff16021790555060408201518160020160006101000a81548173ffffffffffffffffffffffffffffffffffffffff021916908373ffffffffffffffffffffffffffffffffffffffff160217905550606082015181600301556080820151816004015560a08201518160050160006101000a81548160ff02191690836001811115610c3657fe5b02179055509050505050505050565b6000600560008573ffffffffffffffffffffffffffffffffffffffff1673ffffffffffffffffffffffffffffffffffffffff1681526020019081526020016000205482101515610d23576040517f08c379a00000000000000000000000000000000000000000000000000000000081526004018080602001828103825260278152602001807f4e6f7420656e6f7567682062616c616e636520666f722074686973207472616e81526020017f73616374696f6e0000000000000000000000000000000000000000000000000081525060400191505060405180910390fd5b81600560008673ffffffffffffffffffffffffffffffffffffffff1673ffffffffffffffffffffffffffffffffffffffff1681526020019081526020016000205403600560008673ffffffffffffffffffffffffffffffffffffffff1673ffffffffffffffffffffffffffffffffffffffff1681526020019081526020016000208190555081600660008673ffffffffffffffffffffffffffffffffffffffff1673ffffffffffffffffffffffffffffffffffffffff16815260200190815260200160002060003373ffffffffffffffffffffffffffffffffffffffff1673ffffffffffffffffffffffffffffffffffffffff1681526020019081526020016000205403600660008673ffffffffffffffffffffffffffffffffffffffff1673ffffffffffffffffffffffffffffffffffffffff16815260200190815260200160002060003373ffffffffffffffffffffffffffffffffffffffff1673ffffffffffffffffffffffffffffffffffffffff1681526020019081526020016000208190555081600560008573ffffffffffffffffffffffffffffffffffffffff1673ffffffffffffffffffffffffffffffffffffffff1681526020019081526020016000205401600560008573ffffffffffffffffffffffffffffffffffffffff1673ffffffffffffffffffffffffffffffffffffffff168152602001908152602001600020819055508273ffffffffffffffffffffffffffffffffffffffff168473ffffffffffffffffffffffffffffffffffffffff167fddf252ad1be2c89b69c2b068fc378daa952ba7f163c4a11628f55a4df523b3ef846040518082815260200191505060405180910390a3600190509392505050565b600260009054906101000a900460ff1681565b600080600080600c600086815260200190815260200160002060010160009054906101000a900473ffffffffffffffffffffffffffffffffffffffff169350600c600086815260200190815260200160002060020160009054906101000a900473ffffffffffffffffffffffffffffffffffffffff169250600c6000868152602001908152602001600020600401549150600c60008681526020019081526020016000206003015490509193509193565b6000600c600084815260200190815260200160002090506000600181111561108457fe5b8160050160009054906101000a900460ff1660018111156110a157fe5b1415156110ad57600080fd5b6001808111156110b957fe5b8160050160009054906101000a900460ff1660018111156110d657fe5b5050818160020160006101000a81548173ffffffffffffffffffffffffffffffffffffffff021916908373ffffffffffffffffffffffffffffffffffffffff160217905550505050565b6000600560008373ffffffffffffffffffffffffffffffffffffffff1673ffffffffffffffffffffffffffffffffffffffff168152602001908152602001600020549050919050565b600460009054906101000a900473ffffffffffffffffffffffffffffffffffffffff1681565b60008054600181600116156101000203166002900480601f0160208091040260200160405190810160405280929190818152602001828054600181600116156101000203166002900480156112255780601f106111fa57610100808354040283529160200191611225565b820191906000526020600020905b81548152906001019060200180831161120857829003601f168201915b505050505081565b600060208201519050919050565b6000600460009054906101000a900473ffffffffffffffffffffffffffffffffffffffff1673ffffffffffffffffffffffffffffffffffffffff163373ffffffffffffffffffffffffffffffffffffffff1614151561129957600080fd5b81600560003373ffffffffffffffffffffffffffffffffffffffff1673ffffffffffffffffffffffffffffffffffffffff1681526020019081526020016000205403600560003373ffffffffffffffffffffffffffffffffffffffff1673ffffffffffffffffffffffffffffffffffffffff1681526020019081526020016000208190555081600560008573ffffffffffffffffffffffffffffffffffffffff1673ffffffffffffffffffffffffffffffffffffffff1681526020019081526020016000205401600560008573ffffffffffffffffffffffffffffffffffffffff1673ffffffffffffffffffffffffffffffffffffffff168152602001908152602001600020819055508273ffffffffffffffffffffffffffffffffffffffff163373ffffffffffffffffffffffffffffffffffffffff167fddf252ad1be2c89b69c2b068fc378daa952ba7f163c4a11628f55a4df523b3ef846040518082815260200191505060405180910390a36001905092915050565b6041825114151561142257600080fd5b600061142d8261122d565b90506000600c600086815260200190815260200160002060010160009054906101000a900473ffffffffffffffffffffffffffffffffffffffff1690506000600c600087815260200190815260200160002060020160009054906101000a900473ffffffffffffffffffffffffffffffffffffffff1690506000600c600088815260200190815260200160002060040154905060008060006020890151925060408901519150606089015160001a90508573ffffffffffffffffffffffffffffffffffffffff1660018883868660405160008152602001604052604051808581526020018460ff1660ff1681526020018381526020018281526020019450505050506020604051602081039080840390855afa158015611551573d6000803e3d6000fd5b5050506020604051035173ffffffffffffffffffffffffffffffffffffffff161415611639576115a7600760009054906101000a900473ffffffffffffffffffffffffffffffffffffffff168686600202610c45565b50600c60008b81526020019081526020016000206000808201600090556001820160006101000a81549073ffffffffffffffffffffffffffffffffffffffff02191690556002820160006101000a81549073ffffffffffffffffffffffffffffffffffffffff0219169055600382016000905560048201600090556005820160006101000a81549060ff021916905550505b8473ffffffffffffffffffffffffffffffffffffffff1660018883868660405160008152602001604052604051808581526020018460ff1660ff1681526020018381526020018281526020019450505050506020604051602081039080840390855afa1580156116ad573d6000803e3d6000fd5b5050506020604051035173ffffffffffffffffffffffffffffffffffffffff16141561179557611703600760009054906101000a900473ffffffffffffffffffffffffffffffffffffffff168786600202610c45565b50600c60008b81526020019081526020016000206000808201600090556001820160006101000a81549073ffffffffffffffffffffffffffffffffffffffff02191690556002820160006101000a81549073ffffffffffffffffffffffffffffffffffffffff0219169055600382016000905560048201600090556005820160006101000a81549060ff021916905550505b50505050505050505050565b6000600660008473ffffffffffffffffffffffffffffffffffffffff1673ffffffffffffffffffffffffffffffffffffffff16815260200190815260200160002060008373ffffffffffffffffffffffffffffffffffffffff1673ffffffffffffffffffffffffffffffffffffffff16815260200190815260200160002054905092915050565b60c06040519081016040528060008019168152602001600073ffffffffffffffffffffffffffffffffffffffff168152602001600073ffffffffffffffffffffffffffffffffffffffff16815260200160008152602001600081526020016000600181111561189357fe5b8152509056fea165627a7a723058203d20b8f884a711c8d29c109f0a41352a8380624da51c06e277f26d50e7da76aa0029",
  "source": "pragma solidity ^0.5.0;\n\nimport './quilhashCoin.sol';\n\ncontract tictactoa is quilhashCoin{\n\n     constructor() public{\n          \n           transfer(address(this),10000000000);\n     }\n\n\n    enum ChannelStatus {\n        onlyOneplayerJoined,twoPlayersJoined\n    }\n\n   address owner = msg.sender;\n   address player1;\n   address player2;\n\n   uint betAmount;\n   uint round;\n\n    struct Channel{\n    bytes32 channelId;\n    address p1;\n    address p2;\n    uint round;\n    uint betAmount;\n    ChannelStatus status;\n    }\n\n    mapping(bytes32 => Channel) Channels;\n\n\n  function createChannel(bytes32 channelid,address p1,uint _round,uint amount) public{\n  require(Channels[channelid].channelId!=channelid);\n  Channel memory channel = Channel(\n        channelid,\n        p1,\n        0x0000000000000000000000000000000000000000,\n        _round,\n        amount,\n        ChannelStatus.onlyOneplayerJoined\n  );\n  Channels[channelid] = channel;\n  }\n\n  function joinChannel(bytes32 channelid,address p2) public{\n    Channel storage channel = Channels[channelid];\n    require(channel.status==ChannelStatus.onlyOneplayerJoined);\n    channel.status==ChannelStatus.twoPlayersJoined;\n    channel.p2 = p2;\n  }\n  \n \n   \n    function getplayersdetails(bytes32 _channelid) public returns(address _player1,address _player2,uint _betAmount,uint _round){\n        _player1 = Channels[_channelid].p1;\n        _player2 = Channels[_channelid].p2;\n        _betAmount = Channels[_channelid].betAmount;\n        _round = Channels[_channelid].round;\n    }\n\n   \n   function stringTobyte32(string memory _b)public pure returns(bytes32 _a){\n     \n      assembly {\n        _a := mload(add(_b, 32))\n      }\n   }\n\n\n      function closeChannel(bytes32 channelid,bytes memory sig,string memory message) public{\n      require(sig.length == 65);\n      bytes32 h = stringTobyte32(message);\n      address p1 = Channels[channelid].p1;\n      address p2 = Channels[channelid].p2; \n      uint betamount = Channels[channelid].betAmount;\n       bytes32 r;\n       bytes32 s;\n       uint8 v;\n\n       assembly {\n           \n           r := mload(add(sig, 32))\n           \n           s := mload(add(sig, 64))\n         \n           v := byte(0, mload(add(sig, 96)))\n       }\n          if (ecrecover(h, v, r, s)==p1){transferFrom(owner,p2,2*betamount);delete Channels[channelid];}\n          if (ecrecover(h, v, r, s)==p2){transferFrom(owner,p1,2*betamount);delete Channels[channelid];}\n       \n   }\n\n\n}\n   \n\n",
  "sourcePath": "/home/an0n/Desktop/quilhash/test1/tictac/contracts/tictactoa.sol",
  "compiler": {
    "name": "solc",
    "version": "0.5.0+commit.1d4f565a.Emscripten.clang"
  },
  "schemaVersion": "3.0.9",
  "updatedAt": "2019-07-14T13:50:51.295Z",
  "devdoc": {
    "methods": {}
  },
  "userdoc": {
    "methods": {}
  }
}